{
  "_format": "hh-sol-artifact-1",
  "contractName": "Transactions",
  "sourceName": "contracts/Transactions.sol",
  "abi": [
    {
      "anonymous": false,
      "inputs": [
        {
          "indexed": false,
          "internalType": "address",
          "name": "from",
          "type": "address"
        },
        {
          "indexed": false,
          "internalType": "address",
          "name": "to",
          "type": "address"
        },
        {
          "indexed": false,
          "internalType": "uint256",
          "name": "amount",
          "type": "uint256"
        },
        {
          "indexed": false,
          "internalType": "string",
          "name": "message",
          "type": "string"
        },
        {
          "indexed": false,
          "internalType": "uint256",
          "name": "timeStamp",
          "type": "uint256"
        },
        {
          "indexed": false,
          "internalType": "string",
          "name": "keyword",
          "type": "string"
        }
      ],
      "name": "Transfer",
      "type": "event"
    },
    {
      "inputs": [
        {
          "internalType": "address payable",
          "name": "_to",
          "type": "address"
        },
        {
          "internalType": "uint256",
          "name": "_amount",
          "type": "uint256"
        },
        {
          "internalType": "string",
          "name": "_message",
          "type": "string"
        },
        {
          "internalType": "string",
          "name": "_keyword",
          "type": "string"
        }
      ],
      "name": "addToBlockchain",
      "outputs": [],
      "stateMutability": "nonpayable",
      "type": "function"
    },
    {
      "inputs": [],
      "name": "getTransactionCount",
      "outputs": [
        {
          "internalType": "uint256",
          "name": "",
          "type": "uint256"
        }
      ],
      "stateMutability": "view",
      "type": "function"
    },
    {
      "inputs": [],
      "name": "getTransactions",
      "outputs": [
        {
          "components": [
            {
              "internalType": "address",
              "name": "from",
              "type": "address"
            },
            {
              "internalType": "address",
              "name": "to",
              "type": "address"
            },
            {
              "internalType": "uint256",
              "name": "amount",
              "type": "uint256"
            },
            {
              "internalType": "string",
              "name": "message",
              "type": "string"
            },
            {
              "internalType": "uint256",
              "name": "timestamp",
              "type": "uint256"
            },
            {
              "internalType": "string",
              "name": "keyword",
              "type": "string"
            }
          ],
          "internalType": "struct Transactions.TransferStruct[]",
          "name": "",
          "type": "tuple[]"
        }
      ],
      "stateMutability": "view",
      "type": "function"
    },
    {
      "inputs": [
        {
          "internalType": "uint256",
          "name": "",
          "type": "uint256"
        }
      ],
      "name": "transactions",
      "outputs": [
        {
          "internalType": "address",
          "name": "from",
          "type": "address"
        },
        {
          "internalType": "address",
          "name": "to",
          "type": "address"
        },
        {
          "internalType": "uint256",
          "name": "amount",
          "type": "uint256"
        },
        {
          "internalType": "string",
          "name": "message",
          "type": "string"
        },
        {
          "internalType": "uint256",
          "name": "timestamp",
          "type": "uint256"
        },
        {
          "internalType": "string",
          "name": "keyword",
          "type": "string"
        }
      ],
      "stateMutability": "view",
      "type": "function"
    }
  ],
  "bytecode": "0x608060405234801561001057600080fd5b50611084806100206000396000f3fe608060405234801561001057600080fd5b506004361061004c5760003560e01c80632e7700f01461005157806383920e901461006f5780639ace38c21461008d578063cc2d7ead146100c2575b600080fd5b6100596100de565b6040516100669190610693565b60405180910390f35b6100776100e7565b60405161008491906108e0565b60405180910390f35b6100a760048036038101906100a29190610942565b61032a565b6040516100b9969594939291906109c8565b60405180910390f35b6100dc60048036038101906100d79190610baa565b6104c6565b005b60008054905090565b60606001805480602002602001604051908101604052809291908181526020016000905b8282101561032157838290600052602060002090600602016040518060c00160405290816000820160009054906101000a900473ffffffffffffffffffffffffffffffffffffffff1673ffffffffffffffffffffffffffffffffffffffff1673ffffffffffffffffffffffffffffffffffffffff1681526020016001820160009054906101000a900473ffffffffffffffffffffffffffffffffffffffff1673ffffffffffffffffffffffffffffffffffffffff1673ffffffffffffffffffffffffffffffffffffffff168152602001600282015481526020016003820180546101f490610c78565b80601f016020809104026020016040519081016040528092919081815260200182805461022090610c78565b801561026d5780601f106102425761010080835404028352916020019161026d565b820191906000526020600020905b81548152906001019060200180831161025057829003601f168201915b505050505081526020016004820154815260200160058201805461029090610c78565b80601f01602080910402602001604051908101604052809291908181526020018280546102bc90610c78565b80156103095780601f106102de57610100808354040283529160200191610309565b820191906000526020600020905b8154815290600101906020018083116102ec57829003601f168201915b5050505050815250508152602001906001019061010b565b50505050905090565b6001818154811061033a57600080fd5b90600052602060002090600602016000915090508060000160009054906101000a900473ffffffffffffffffffffffffffffffffffffffff16908060010160009054906101000a900473ffffffffffffffffffffffffffffffffffffffff16908060020154908060030180546103af90610c78565b80601f01602080910402602001604051908101604052809291908181526020018280546103db90610c78565b80156104285780601f106103fd57610100808354040283529160200191610428565b820191906000526020600020905b81548152906001019060200180831161040b57829003601f168201915b50505050509080600401549080600501805461044390610c78565b80601f016020809104026020016040519081016040528092919081815260200182805461046f90610c78565b80156104bc5780601f10610491576101008083540402835291602001916104bc565b820191906000526020600020905b81548152906001019060200180831161049f57829003601f168201915b5050505050905086565b60016000808282546104d89190610cd8565b9250508190555060016040518060c001604052803373ffffffffffffffffffffffffffffffffffffffff1681526020018673ffffffffffffffffffffffffffffffffffffffff16815260200185815260200184815260200142815260200183815250908060018154018082558091505060019003906000526020600020906006020160009091909190915060008201518160000160006101000a81548173ffffffffffffffffffffffffffffffffffffffff021916908373ffffffffffffffffffffffffffffffffffffffff16021790555060208201518160010160006101000a81548173ffffffffffffffffffffffffffffffffffffffff021916908373ffffffffffffffffffffffffffffffffffffffff1602179055506040820151816002015560608201518160030190816106109190610eb8565b506080820151816004015560a08201518160050190816106309190610eb8565b5050507f416cfa4330a4565f45c2fd2dd4826a83a37443aba2ce6f79477c7355afac35fa33858585428660405161066c96959493929190610fdf565b60405180910390a150505050565b6000819050919050565b61068d8161067a565b82525050565b60006020820190506106a86000830184610684565b92915050565b600081519050919050565b600082825260208201905092915050565b6000819050602082019050919050565b600073ffffffffffffffffffffffffffffffffffffffff82169050919050565b6000610705826106da565b9050919050565b610715816106fa565b82525050565b6107248161067a565b82525050565b600081519050919050565b600082825260208201905092915050565b60005b83811015610764578082015181840152602081019050610749565b60008484015250505050565b6000601f19601f8301169050919050565b600061078c8261072a565b6107968185610735565b93506107a6818560208601610746565b6107af81610770565b840191505092915050565b600060c0830160008301516107d2600086018261070c565b5060208301516107e5602086018261070c565b5060408301516107f8604086018261071b565b50606083015184820360608601526108108282610781565b9150506080830151610825608086018261071b565b5060a083015184820360a086015261083d8282610781565b9150508091505092915050565b600061085683836107ba565b905092915050565b6000602082019050919050565b6000610876826106ae565b61088081856106b9565b935083602082028501610892856106ca565b8060005b858110156108ce57848403895281516108af858261084a565b94506108ba8361085e565b925060208a01995050600181019050610896565b50829750879550505050505092915050565b600060208201905081810360008301526108fa818461086b565b905092915050565b6000604051905090565b600080fd5b600080fd5b61091f8161067a565b811461092a57600080fd5b50565b60008135905061093c81610916565b92915050565b6000602082840312156109585761095761090c565b5b60006109668482850161092d565b91505092915050565b610978816106fa565b82525050565b600082825260208201905092915050565b600061099a8261072a565b6109a4818561097e565b93506109b4818560208601610746565b6109bd81610770565b840191505092915050565b600060c0820190506109dd600083018961096f565b6109ea602083018861096f565b6109f76040830187610684565b8181036060830152610a09818661098f565b9050610a186080830185610684565b81810360a0830152610a2a818461098f565b9050979650505050505050565b6000610a42826106da565b9050919050565b610a5281610a37565b8114610a5d57600080fd5b50565b600081359050610a6f81610a49565b92915050565b600080fd5b600080fd5b7f4e487b7100000000000000000000000000000000000000000000000000000000600052604160045260246000fd5b610ab782610770565b810181811067ffffffffffffffff82111715610ad657610ad5610a7f565b5b80604052505050565b6000610ae9610902565b9050610af58282610aae565b919050565b600067ffffffffffffffff821115610b1557610b14610a7f565b5b610b1e82610770565b9050602081019050919050565b82818337600083830152505050565b6000610b4d610b4884610afa565b610adf565b905082815260208101848484011115610b6957610b68610a7a565b5b610b74848285610b2b565b509392505050565b600082601f830112610b9157610b90610a75565b5b8135610ba1848260208601610b3a565b91505092915050565b60008060008060808587031215610bc457610bc361090c565b5b6000610bd287828801610a60565b9450506020610be38782880161092d565b935050604085013567ffffffffffffffff811115610c0457610c03610911565b5b610c1087828801610b7c565b925050606085013567ffffffffffffffff811115610c3157610c30610911565b5b610c3d87828801610b7c565b91505092959194509250565b7f4e487b7100000000000000000000000000000000000000000000000000000000600052602260045260246000fd5b60006002820490506001821680610c9057607f821691505b602082108103610ca357610ca2610c49565b5b50919050565b7f4e487b7100000000000000000000000000000000000000000000000000000000600052601160045260246000fd5b6000610ce38261067a565b9150610cee8361067a565b9250828201905080821115610d0657610d05610ca9565b5b92915050565b60008190508160005260206000209050919050565b60006020601f8301049050919050565b600082821b905092915050565b600060088302610d6e7fffffffffffffffffffffffffffffffffffffffffffffffffffffffffffffffff82610d31565b610d788683610d31565b95508019841693508086168417925050509392505050565b6000819050919050565b6000610db5610db0610dab8461067a565b610d90565b61067a565b9050919050565b6000819050919050565b610dcf83610d9a565b610de3610ddb82610dbc565b848454610d3e565b825550505050565b600090565b610df8610deb565b610e03818484610dc6565b505050565b5b81811015610e2757610e1c600082610df0565b600181019050610e09565b5050565b601f821115610e6c57610e3d81610d0c565b610e4684610d21565b81016020851015610e55578190505b610e69610e6185610d21565b830182610e08565b50505b505050565b600082821c905092915050565b6000610e8f60001984600802610e71565b1980831691505092915050565b6000610ea88383610e7e565b9150826002028217905092915050565b610ec18261072a565b67ffffffffffffffff811115610eda57610ed9610a7f565b5b610ee48254610c78565b610eef828285610e2b565b600060209050601f831160018114610f225760008415610f10578287015190505b610f1a8582610e9c565b865550610f82565b601f198416610f3086610d0c565b60005b82811015610f5857848901518255600182019150602085019450602081019050610f33565b86831015610f755784890151610f71601f891682610e7e565b8355505b6001600288020188555050505b505050505050565b6000610fa5610fa0610f9b846106da565b610d90565b6106da565b9050919050565b6000610fb782610f8a565b9050919050565b6000610fc982610fac565b9050919050565b610fd981610fbe565b82525050565b600060c082019050610ff4600083018961096f565b6110016020830188610fd0565b61100e6040830187610684565b8181036060830152611020818661098f565b905061102f6080830185610684565b81810360a0830152611041818461098f565b905097965050505050505056fea2646970667358221220fb96a443047437fa31371fd13212b1e6b96d7f9e0561195e273d093e4f1f88a864736f6c63430008130033",
  "linkReferences": {},
  "deployedLinkReferences": {}
}